:020000040800F2
:100000000000032039720008B1700008BF700008BA
:10001000C5700008CB700008D17000080000000017
:10002000000000000000000000000000D770000881
:10003000E570000800000000F3700008017100087E
:1000400089720008897200088972000889720008A4
:100050008972000889720008897200088972000894
:100060008972000889720008897200088972000884
:100070008972000889720008897200088972000874
:100080008972000889720008897200088972000864
:100090008972000889720008897200088972000854
:1000A0008972000889720008897200088972000844
:1000B0008972000889720008897200088972000834
:1000C0008972000889720008897200088972000824
:1000D0008972000889720008897200088972000814
:1000E0008972000889720008897200088972000804
:1000F00089720008897200088972000889720008F4
:1001000089720008897200088972000889720008E3
:1001100089720008897200080D7100088972000850
:1001200089720008897200088972000889720008C3
:1001300089720008897200088972000889720008B3
:1001400089720008897200088972000889720008A3
:100150008972000889720008897200088972000893
:100160008972000889720008897200088972000883
:100170008972000889720008897200080000000076
:100180008972000889720008897200088972000863
:100190008972000889720008897200088972000853
:0C01A0008972000889720008897200084A
:1001B00010B5054C237833B9044B13B10448AFF3A1
:1001C00000800123237010BD2402002000000000E5
:1001D0005CAD000808B5034B1BB103490348AFF3FE
:1001E000008008BD00000000280200205CAD00086F
:1001F000034613F8012B002AFBD1181A0138704767
:1002000001F0FF01102A2BDB10F0070F08D010F8C7
:10021000013B013A8B422DD010F0070F42B3F6D1CB
:10022000F0B441EA012141EA014122F007047FF0E4
:1002300000070023F0E80256083C85EA010586EA3B
:10024000010685FA47F5A3FA87F586FA47F6A5FA77
:1002500087F68EB9EED1F0BC01F0FF0102F0070283
:1002600032B110F8013B013A83EA010313B1F8D12E
:100270000020704701387047002D06BF354603380F
:10028000073815F0010F07D1013015F4807F02BF48
:10029000013015F4C03F0130F0BC0138704700BF99
:1002A00081F0004102E000BF83F0004330B54FEA27
:1002B00041044FEA430594EA050F08BF90EA020F94
:1002C0001FBF54EA000C55EA020C7FEA645C7FEA27
:1002D000655C00F0E2804FEA5454D4EB5555B8BF4A
:1002E0006D420CDD2C4480EA020281EA030382EABB
:1002F000000083EA010180EA020281EA0303362D4D
:1003000088BF30BD11F0004F4FEA01314FF4801C1F
:100310004CEA113102D0404261EB410113F0004F31
:100320004FEA03334CEA133302D0524263EB4303E8
:1003300094EA050F00F0A780A4F10104D5F1200E86
:100340000DDB02FA0EFC22FA05F2801841F10001E1
:1003500003FA0EF2801843FA05F359410EE0A5F1B5
:1003600020050EF1200E012A03FA0EFC28BF4CF0E6
:10037000020C43FA05F3C01851EBE37101F000459C
:1003800007D54FF0000EDCF1000C7EEB00006EEBA9
:100390000101B1F5801F1BD3B1F5001F0CD3490833
:1003A0005FEA30004FEA3C0C04F101044FEA44528A
:1003B00012F5800F80F09A80BCF1004F08BF5FEA11
:1003C000500C50F1000041EB045141EA050130BDF1
:1003D0005FEA4C0C404141EB010111F4801FA4F194
:1003E0000104E9D191F0000F04BF01460020B1FAE9
:1003F00081F308BF2033A3F10B03B3F120020CDA21
:100400000C3208DD02F1140CC2F10C0201FA0CF0FE
:1004100021FA02F10CE002F11402D8BFC2F1200C63
:1004200001FA02F120FA0CFCDCBF41EA0C01904019
:10043000E41AA2BF01EB0451294330BD6FEA040462
:100440001F3C1CDA0C340EDC04F11404C4F120024D
:1004500020FA04F001FA02F340EA030021FA04F35F
:1004600045EA030130BDC4F10C04C4F1200220FAB6
:1004700002F001FA04F340EA0300294630BD21FAF4
:1004800004F0294630BD94F0000F83F4801306BFBA
:1004900081F480110134013D4EE77FEA645C18BFAE
:1004A0007FEA655C29D094EA050F08BF90EA020F45
:1004B00005D054EA000C04BF1946104630BD91EA3D
:1004C000030F1EBF0021002030BD5FEA545C05D140
:1004D0004000494128BF41F0004130BD14F580047F
:1004E0003CBF01F5801130BD01F0004545F0FE41F3
:1004F00041F470014FF0000030BD7FEA645C1ABF28
:10050000194610467FEA655C1CBF0B46024650EA5E
:10051000013406BF52EA033591EA030F41F400218A
:1005200030BD00BF90F0000F04BF0021704730B510
:100530004FF4806404F132044FF000054FF00001E5
:1005400050E700BF90F0000F04BF0021704730B5A6
:100550004FF4806404F1320410F0004548BF40427B
:100560004FF000013EE700BF42004FEAE2014FEAD0
:1005700031014FEA02701FBF12F07F4393F07F4FAB
:1005800081F06051704732F07F4208BF704793F0AE
:100590007F4F04BF41F40021704730B54FF46074C1
:1005A00001F0004521F000411CE700BF50EA0102C4
:1005B00008BF704730B54FF000050AE050EA01026D
:1005C00008BF704730B511F0004502D5404261EBDD
:1005D00041014FF4806404F132045FEA915C3FF41E
:1005E000D8AE4FF003025FEADC0C18BF03325FEABB
:1005F000DC0C18BF033202EBDC02C2F1200300FA6C
:1006000003FC20FA02F001FA03FE40EA0E0021FA90
:1006100002F11444BDE600BF70B54FF0FF0C4CF47E
:10062000E06C1CEA11541DBF1CEA135594EA0C0F30
:1006300095EA0C0F00F0DEF82C4481EA030621EA6B
:100640004C5123EA4C5350EA013518BF52EA0335A6
:1006500041F4801143F4801338D0A0FB02CE4FF058
:100660000005E1FB02E506F00042E0FB03E54FF088
:100670000006E1FB03569CF0000F18BF4EF0010E80
:10068000A4F1FF04B6F5007F64F5407404D25FEA7C
:100690004E0E6D4146EB060642EAC62141EA55512F
:1006A0004FEAC52040EA5E504FEACE2EB4F1FD0C71
:1006B00088BFBCF5E06F1ED8BEF1004F08BF5FEAEF
:1006C000500E50F1000041EB045170BD06F00046A1
:1006D00046EA010140EA020081EA0301B4EB5C044E
:1006E000C2BFD4EB0C0541EA045170BD41F4801146
:1006F0004FF0000E013C00F3AB8014F1360FDEBF6B
:10070000002001F0004170BDC4F10004203C35DA46
:100710000C341BDC04F11404C4F1200500FA05F3C9
:1007200020FA04F001FA05F240EA020001F000426A
:1007300021F0004110EBD37021FA04F642EB0601E0
:100740005EEA430E08BF20EAD37070BDC4F10C040A
:10075000C4F1200500FA04F320FA05F001FA04F2CE
:1007600040EA020001F0004110EBD37041F10001BA
:100770005EEA430E08BF20EAD37070BDC4F12005C5
:1007800000FA05F24EEA020E20FA04F301FA05F22D
:1007900043EA020321FA04F001F0004121FA04F2D5
:1007A00020EA020000EBD3705EEA430E08BF20EAA5
:1007B000D37070BD94F0000F0FD101F000464000DF
:1007C00041EB010111F4801F08BF013CF7D041EA61
:1007D000060195F0000F18BF704703F00046520065
:1007E00043EB030313F4801F08BF013DF7D043EA36
:1007F0000603704794EA0C0F0CEA135518BF95EAEC
:100800000C0F0CD050EA410618BF52EA4306D1D172
:1008100081EA030101F000414FF0000070BD50EA91
:10082000410606BF1046194652EA430619D094EA1B
:100830000C0F02D150EA013613D195EA0C0F05D105
:1008400052EA03361CBF104619460AD181EA030159
:1008500001F0004141F0FE4141F470014FF0000011
:1008600070BD41F0FE4141F4780170BD70B54FF0AC
:10087000FF0C4CF4E06C1CEA11541DBF1CEA13552C
:1008800094EA0C0F95EA0C0F00F0A7F8A4EB05040E
:1008900081EA030E52EA03354FEA013100F0888005
:1008A0004FEA03334FF0805545EA131343EA1263CE
:1008B0004FEA022245EA111545EA10654FEA002683
:1008C0000EF000419D4208BF964244F1FD0404F53C
:1008D000407402D25B084FEA3202B61A65EB030598
:1008E0005B084FEA32024FF480104FF4002CB6EB55
:1008F000020E75EB030E22BFB61A754640EA0C00D5
:100900005B084FEA3202B6EB020E75EB030E22BF14
:10091000B61A754640EA5C005B084FEA3202B6EB55
:10092000020E75EB030E22BFB61A754640EA9C0014
:100930005B084FEA3202B6EB020E75EB030E22BFE4
:10094000B61A754640EADC0055EA060E18D04FEAA2
:10095000051545EA16754FEA06164FEAC30343EA42
:1009600052734FEAC2025FEA1C1CC0D111F4801F0F
:100970000BD141EA00014FF000004FF0004CB6E708
:1009800011F4801F04BF01430020B4F1FD0C88BFA7
:10099000BCF5E06F3FF6AFAEB5EB030C04BFB6EBB2
:1009A000020C5FEA500C50F1000041EB045170BDA5
:1009B0000EF0004E4EEA113114EB5C04C2BFD4EBD2
:1009C0000C0541EA045170BD41F480114FF0000E56
:1009D000013C90E645EA060E8DE60CEA135594EAD2
:1009E0000C0F08BF95EA0C0F3FF43BAF94EA0C0FD5
:1009F0000AD150EA01347FF434AF95EA0C0F7FF44A
:100A000025AF104619462CE795EA0C0F06D152EA9D
:100A100003353FF4FDAE1046194622E750EA410681
:100A200018BF52EA43067FF4C5AE50EA41047FF492
:100A30000DAF52EA43057FF4EBAE12E74FF0FF3CF7
:100A400006E000BF4FF0010C02E000BF4FF0010CC8
:100A50004DF804CD4FEA410C7FEA6C5C4FEA430C41
:100A600018BF7FEA6C5C1BD001B050EA410C0CBF90
:100A700052EA430C91EA030F02BF90EA020F0020F2
:100A8000704710F1000F91EA030F58BF994208BF59
:100A900090422CBFD8176FEAE37040F00100704716
:100AA0004FEA410C7FEA6C5C02D150EA013C07D16D
:100AB0004FEA430C7FEA6C5CD6D152EA033CD3D0B8
:100AC0005DF8040B704700BF8446104662468C46B2
:100AD0001946634600E000BF01B5FFF7B7FF0028E5
:100AE00048BF10F1000F01BD4DF808EDFFF7F4FF0E
:100AF0000CBF012000205DF808FB00BF4DF808ED99
:100B0000FFF7EAFF34BF012000205DF808FB00BFBB
:100B10004DF808EDFFF7E0FF94BF012000205DF8DD
:100B200008FB00BF4DF808EDFFF7CEFF94BF012092
:100B300000205DF808FB00BF4DF808EDFFF7C4FF8B
:100B400034BF012000205DF808FB00BF4FEA410CD4
:100B50007FEA6C5C02D150EA013C0AD14FEA430CB7
:100B60007FEA6C5C02D152EA033C02D14FF00000F4
:100B700070474FF0010070474FEA410212F5001232
:100B800015D211D56FF47873B3EB625212D94FEAD4
:100B9000C12343F0004343EA505311F0004F23FABE
:100BA00002F018BF404270474FF00000704750EA13
:100BB000013005D111F0004008BF6FF000407047D0
:100BC0004FF00000704700BF4A0011D212F500122A
:100BD00011D20DD56FF47873B3EB62520ED44FEA95
:100BE000C12343F0004343EA505323FA02F0704715
:100BF0004FF00000704750EA013002D14FF0FF3053
:100C000070474FF0000070474FEA4102B2F1E043F5
:100C100024BFB3F5001CDCF1FE5C0DD901F0004CE3
:100C20004FEAC0024CEA5070B2F1004F40EB830033
:100C300008BF20F00100704711F0804F21D113F15F
:100C40003872BCBF01F00040704741F480114FEA98
:100C50005252C2F11802C2F1200C10FA0CF320FA21
:100C600002F018BF40F001004FEAC1234FEAD3233E
:100C700003FA0CFC40EA0C0023FA02F34FEA4303A8
:100C8000CCE77FEA625307D150EA01331EBF4FF031
:100C9000FE4040F44000704701F0004040F0FE404C
:100CA00040F40000704700BF53B94AB9002908BF9B
:100CB00000281CBF4FF0FF314FF0FF3000F072B939
:100CC000ADF1080C6DE904CE00F006F8DDF804E0A3
:100CD000DDE9022304B070472DE9F047089E044681
:100CE0008846002B4BD18A42154667D9B2FA82F268
:100CF0004AB1C2F1200701FA02F320FA07F7954042
:100D000047EA030894404FEA154E230CB8FBFEF760
:100D10001FFA85FC0EFB178843EA084307FB0CF11A
:100D2000994209D9EB1807F1FF3080F01B819942F5
:100D300040F21881023F2B445B1AA4B2B3FBFEF0D1
:100D40000EFB103344EA034400FB0CFCA44509D914
:100D50002C1900F1FF3380F00781A44540F2048193
:100D600002382C4440EA0740A4EB0C0400271EB1D3
:100D7000D4400023C6E900433946BDE8F0878B42E2
:100D800009D9002E00F0EB800027C6E900013846A3
:100D90003946BDE8F087B3FA83F7002F47D18B427D
:100DA00002D3824200F2FA80841A61EB030301202D
:100DB0009846002EE0D0C6E90048DDE702B9FFDE24
:100DC000B2FA82F2002A40F08F80491B4FEA154E9A
:100DD0001FFA85F80127B1FBFEFC230C0EFB1C114A
:100DE00043EA014308FB0CF1994207D9EB180CF1D7
:100DF000FF3002D2994200F2CD808446591AA3B244
:100E0000B1FBFEF00EFB101443EA044408FB00F8AB
:100E1000A04507D92C1900F1FF3302D2A04500F2FA
:100E2000B6801846A4EB080440EA0C409FE7C7F1DF
:100E3000200CBB4022FA0CFE4EEA030E01FA07F426
:100E400020FA0CF521FA0CF34FEA1E482543B3FBB8
:100E5000F8F92C0C08FB19331FFA8EFA44EA034305
:100E600009FB0AF49C4202FA07F200FA07F10BD9D7
:100E70001EEB030309F1FF3080F087809C4240F2B3
:100E80008480A9F1020973441B1BADB2B3FBF8F0D7
:100E900008FB103345EA034400FB0AFAA24508D9CF
:100EA0001EEB040400F1FF336BD2A24569D902386E
:100EB000744440EA0940A0FB0289A4EB0A044C45B3
:100EC000C2464B4654D351D0002E69D0B1EB0A052F
:100ED00064EB030404FA0CFCFD40FC404CEA0505FD
:100EE000C6E90054002747E7C2F1200320FA03F7C0
:100EF000954001FA02F021FA03F34FEA154E384308
:100F0000010CB3FBFEF71FFA85F80EFB173341EA1D
:100F1000034107FB08F38B4204FA02F407D969186E
:100F200007F1FF3C2FD28B422DD9023F2944CB1A27
:100F300081B2B3FBFEF00EFB103341EA034100FB2C
:100F400008F38B4207D9691800F1FF3C17D28B4296
:100F500015D902382944C91A40EA07473BE7374602
:100F6000304609E70746E7E61846FBE64145ABD2BF
:100F7000B8EB020A69EB0E0201381346A4E760469B
:100F8000E9E7184695E76746D1E781467CE70238EE
:100F90002C4447E7ACF1020C2B442FE7384608E716
:100FA0003746E9E6704700BF80B500AF00F05CFA55
:100FB000CA2000F05DF9C32000F067F9082000F0B6
:100FC00064F9502000F061F9CF2000F051F90020C1
:100FD00000F05BF9C12000F058F9302000F055F91D
:100FE000ED2000F045F9642000F04FF9032000F0F7
:100FF0004CF9122000F049F9812000F046F9E82070
:1010000000F036F9852000F040F9002000F03DF9AD
:10101000782000F03AF9CB2000F02AF9392000F0CE
:1010200034F92C2000F031F9002000F02EF93420A2
:1010300000F02BF9022000F028F9F72000F018F951
:10104000202000F022F9EA2000F012F9002000F040
:101050001CF9002000F019F9B12000F009F9002076
:1010600000F013F91B2000F010F9B62000F000F991
:101070000A2000F00AF9A22000F007F9C02000F0D1
:10108000F7F8102000F001F9C12000F0F1F810206D
:1010900000F0FBF8C52000F0EBF8452000F0F5F873
:1010A000152000F0F2F8C72000F0E2F8902000F0E0
:1010B000ECF8362000F0DCF8C82000F0E6F8F2206A
:1010C00000F0D6F8002000F0E0F8B02000F0D0F8F2
:1010D000C22000F0DAF8B62000F0CAF80A2000F0CA
:1010E000D4F8A72000F0D1F8272000F0CEF8042093
:1010F00000F0CBF82A2000F0BBF8002000F0C5F883
:10110000002000F0C2F8002000F0BFF8EF2000F04F
:10111000BCF82B2000F0ACF8002000F0B6F800205E
:1011200000F0B3F8012000F0B0F83F2000F0ADF877
:10113000F62000F09DF8012000F0A7F8002000F054
:10114000A4F8062000F0A1F82C2000F091F8C820A7
:1011500000F078FA262000F08BF8012000F095F8D6
:10116000E02000F085F80F2000F08FF8292000F033
:101170008CF8242000F089F80C2000F086F80E206E
:1011800000F083F8092000F080F84E2000F07DF890
:10119000782000F07AF83C2000F077F8092000F081
:1011A00074F8132000F071F8052000F06EF8172095
:1011B00000F06BF8112000F068F8002000F065F8EE
:1011C000E12000F055F8002000F05FF8162000F054
:1011D0005CF81B2000F059F8042000F056F81120AC
:1011E00000F053F8072000F050F8312000F04DF8DF
:1011F000332000F04AF8422000F047F8052000F0C4
:1012000044F80C2000F041F80A2000F03EF82820B5
:1012100000F03BF82F2000F038F80F2000F035F8F0
:10122000112000F025F8C82000F00CFA292000F069
:101230001FF82C2000F01CF800BF80BD80B500AF67
:1012400000F012F90321D32000F02CF803469BB2E2
:10125000184680BD80B500AF292000F009F800BF16
:1012600080BD80B500AF282000F002F800BF80BD2F
:1012700080B582B000AF0346FB71FB79184600F0E1
:101280008DF900BF0837BD4680BD80B582B000AF84
:101290000346FB80FB88184600F05EF900BF083764
:1012A000BD4680BD80B582B000AF03460A46FB80D4
:1012B00013467B717A79FB881146184600F090F945
:1012C000034618460837BD4680BD80B400AFF02302
:1012D0001846BD465DF8047B704780B400AF4FF4FC
:1012E000A0731846BD465DF8047B704780B500AF1B
:1012F000194804F0A3F90346002B2BD1164B174ACB
:101300001A60154B1822DA61134B00229A60124BB7
:1013100000225A61104B00221A610F4B00229A6280
:101320000D4B0722DA620C4B0022DA600A4B0022D6
:101330001A62094B4FF400729A61074B00225A62FD
:10134000054B4FF482725A60034800F053F802488C
:1013500003F009FD00BF80BD4002002000500140A5
:1013600080B584B000AF0346FB710023FB73FB79AB
:101370009AB2094B1B6807F10801084803F0B3FE55
:101380000346FB73FB7B002B01D000F027F8BB6802
:1013900018461037BD4680BD3800002040020020AE
:1013A00080B584B000AF0346FB800023FB73094B7C
:1013B0001B68B91D0122084803F061FD0346FB7359
:1013C000FB7B002B01D000F009F800BF1037BD46B1
:1013D00080BD00BF380000204002002080B500AF73
:1013E000034803F024FDFFF781FF00BF80BD00BF6D
:1013F0004002002080B58AB000AF786000233B61D6
:10140000174B5B6C164A43F480135364144B5B6CAC
:1014100003F480133B613B690023FB60104B1B6BA3
:101420000F4A43F0200313630D4B1B6B03F02003A3
:10143000FB60FB684FF460737B610223BB61022396
:10144000FB6101233B6205237B6207F1140319460C
:10145000044801F09FFE00BF2837BD4680BD00BF95
:10146000003802400014024080B588B000AF364B0F
:101470001B78002B64D1344B01221A700023BB600F
:10148000324B1B6B314A43F0080313632F4B1B6B2A
:1014900003F00803BB60BB684FF40053FB600123FB
:1014A0003B6100237B610223BB6107F10C031946FA
:1014B000274801F06FFE00237B60244B1B6B234AFF
:1014C00043F008031363214B1B6B03F008037B609D
:1014D0007B684FF48053FB6001233B6100237B61F9
:1014E0000223BB6107F10C031946194801F052FEB3
:1014F00000233B60154B1B6B144A43F0040313633A
:10150000124B1B6B03F004033B603B680423FB603E
:1015100001233B6100237B610223BB6107F10C03C4
:1015200019460C4801F036FE00220421094802F059
:10153000FDF801220421074802F0F8F8FFF7D6FE73
:1015400000BF2037BD4680BD980200200038024011
:10155000000C02400008024080B582B000AF034694
:10156000FB8001224FF400510A4802F0DFF800220C
:101570000421094802F0DAF8FB881846FFF710FF4B
:1015800001220421044802F0D1F800BF0837BD460B
:1015900080BD00BF000C02400008024080B582B050
:1015A00000AF0346FB7100224FF400510A4802F0DD
:1015B000BDF800220421094802F0B8F8FB799BB27B
:1015C0001846FFF7EDFE01220421044802F0AEF8B0
:1015D00000BF0837BD4680BD000C02400008024035
:1015E00080B584B000AF03460A46FB8013467B718A
:1015F0000023FB6000220421104802F097F800222B
:101600004FF400510E4802F091F8FB881846FFF79E
:10161000C7FE7B791846FFF7A3FEF86001224FF45E
:101620000051074802F082F801220421034802F029
:101630007DF8FB6818461037BD4680BD00080240A3
:10164000000C024080B582B000AF7860786801F08D
:1016500025F800BF0837BD4680BD000080B500AF4B
:101660002D4B2E4A1A602C4B09225A612A4B01221B
:101670009A61294B1D22DA61274B03221A62264BFD
:1016800040F20D125A62244B40F243129A62224BEE
:1016900040F21712DA62204B40F247121A631E4BD7
:1016A000002283F836201C4B002283F834201A4B8A
:1016B000002283F835201A4B08221A60184BC022EA
:1016C0001A61174B04229A61154B4FF400325A628B
:1016D000134803F025F9104B00225A600E4B0022EC
:1016E0009A600D4B0022DA600B4B00221A6100F069
:1016F000ABFB094802F0D8F90A4B0B4A1A60094BB8
:101700001B681B68984700F08DFD084800F0BEF884
:101710000023184680BD00BF04040020006801407B
:10172000DC020020AC040020000000203C0000206F
:1017300080B500AF034B1B689B6A98470346184669
:1017400080BD00BFAC04002080B500AF034B1B6818
:10175000DB6A98470346184680BD00BFAC040020F2
:1017600080B590B000AF03463960FB800023FB607A
:10177000FFF7DEFF03463B6100237B61FFF7E4FFD9
:101780000346BB610023FB613B683B63FF233B6275
:1017900000237B62002387F83C30002387F83D302C
:1017A000002387F83E304FF4C063BB620723FB621F
:1017B000FFF7BEFF03467B63FFF7C6FF0346BB632D
:1017C000FA8807F10C031946144802F03DFAFA882A
:1017D000134913465B0013449B000B4404334FF042
:1017E000FF321A60FA880E4913465B0013449B00CF
:1017F0000B4408330B4A1A60FA88094913465B0008
:1018000013449B000B444FF07F421A60034802F0E0
:1018100059FA00BF4037BD4680BD00BF0404002018
:10182000100300203C00002080B483B000AF78603B
:10183000074B1A68074913465B0013449B000B448F
:101840007A681A6000BF0C37BD465DF8047B7047AC
:101850000C0300201003002080B483B000AF786038
:10186000084B1A68084913465B0013449B000B445D
:1018700004337A681A6000BF0C37BD465DF8047BFC
:10188000704700BF0C0300201003002080B483B019
:1018900000AF7860084B1A68084913465B00134490
:1018A0009B000B4408337A681A6000BF0C37BD46B2
:1018B0005DF8047B704700BF0C030020100300207C
:1018C00080B400AF074B1A68074913465B00134406
:1018D0009B000B4408331B681846BD465DF8047B2B
:1018E000704700BF0C03002010030020F0B585B046
:1018F00002AF78600F4B1C680E4B1B680E4A3421F8
:1019000001FB03F313445C331B681D46FFF710FF14
:101910000646FFF719FF02467B68019300230093F8
:10192000134632462946204600F044FC00BF0C37DF
:10193000BD46F0BD0C0300200404002090B585B026
:1019400000AF78602D4B1A682D4913465B00134495
:101950009B000B441B68FB60284B1968274B1A68D7
:1019600027480B465B000B449B0003440433196873
:10197000234813465B0013449B00034419601F4B2C
:101980001A681F4913465B0013449B000B4408333D
:101990001B68DA887B689BB212FB03F39CB2FFF7EB
:1019A000C7FE034698B2154B1A68154913465B00EB
:1019B00013449B000B4408331B68DB880246214616
:1019C000002000F0E7F90D4B1A680D4913465B0043
:1019D00013449B000B44FA681A60084B1A680849C4
:1019E00013465B0013449B000B441B681846FFF72B
:1019F0001BFF00BF1437BD4690BD00BF0C03002085
:101A00001003002090B583B000AF0346FB800B4667
:101A1000BB801346FB701B4B1A681B4913465B00C7
:101A200013449B000B4408331B681968FB78A3F12F
:101A30002000144B1A68144C13465B0013449B009F
:101A4000234408331B68DB8803FB00F00D4B1A6846
:101A50000D4C13465B0013449B00234408331B6862
:101A60009B880733002B00DA0733DB1003FB00F3FE
:101A7000CA18B988FB88184600F0E2FA00BF0C3794
:101A8000BD4690BD0C03002010030020B0B588B007
:101A900000AFBA601A460346FB810B46BB81134672
:101AA000FB710123FB830023BB830023BB61002365
:101AB0003B61BB687B6102E0BB690133BB617B6951
:101AC0005A1C7A611B78002BF6D1FFF731FE4A4B86
:101AD0001A684A4913465B0013449B000B440833C1
:101AE0001B689B88B0FBF3F33B61FB79022B1CD096
:101AF000032B17D0012B2ED13A69BB69D11A3E4B6B
:101B00001A683E4813465B0013449B0003440833A5
:101B10001B689B8803FB01F35B089AB2FB891344A3
:101B2000FB831BE0FB89FB8318E03A69BB69D31A8E
:101B300099B2314B1A68314813465B0013449B003D
:101B4000034408331B689B8811FB03F39AB2FB899B
:101B50001344FB8302E0FB89FB8300BF1AE0BB68F0
:101B60001A78B989FB8B1846FFF74CFF224B1A688D
:101B7000224913465B0013449B000B4408331B6847
:101B80009A88FB8B1344FB83BB680133BB60BB8B20
:101B90000133BB83BB681B78002B14BF01230023D8
:101BA000DCB2FFF7C5FD0546B98B134B1A68134825
:101BB00013465B0013449B00034408331B689B8857
:101BC00003FB01F3EB1A99B20B4B1A680B4813464F
:101BD0005B0013449B00034408331B689B889942B5
:101BE0002CBF01230023DBB22340DBB2002BB6D194
:101BF00000BF2037BD46B0BD0C03002010030020FD
:101C000080B582B000AF03463960FB80FFF758FE15
:101C10000346DB88FA8812FB03F399B203233A6880
:101C20000020FFF733FF00BF0837BD4680BD00002E
:101C3000B0B586B002AF0346FB800B46BB801346AF
:101C40007B800023FB60164B1B68164A342101FB86
:101C500003F313445C331C68FFF76AFD0246BB883C
:101C600003FB02F2FB8813449B002344FB600C4BF4
:101C70001868FC687D880A4B1A680B4913465B009C
:101C800013449B000B441B68019300230093012322
:101C90002A46214600F08EFA00BF1037BD46B0BD7F
:101CA0000C0300200404002010030020F0B587B0CE
:101CB00002AF0346FB800B46BB8013467B800023AC
:101CC000FB60184B1B68184A342101FB03F31344D3
:101CD0005C331C68FFF72CFD0246BB8803FB02F255
:101CE000FB8813449B002344FB600E4B1C68FD687B
:101CF0007E88FFF71DFD0346591E0A4B1A680B48E4
:101D000013465B0013449B0003441B68019300913E
:101D1000334601222946204600F04CFA00BF143712
:101D2000BD46F0BD0C030020040400201003002079
:101D300090B583B000AF0446084611461A462346C4
:101D4000FB800346BB800B467B8013463B807A8832
:101D5000B988FB881846FFF76BFFBA883B881344A5
:101D600099B27A88FB881846FFF762FF3A88B988EB
:101D7000FB881846FFF79AFFFA887B8813449BB2CA
:101D80003A88B9881846FFF791FF00BF0C37BD4667
:101D900090BD00002DE9F04186B002AF0446084630
:101DA00011461A462346FB800346BB800B467B80C8
:101DB00013463B800023FB60204B1A6820491346E2
:101DC0005B0013449B000B441B681846FFF72CFD77
:101DD0001A4B1B681B4A342101FB03F313445C3389
:101DE0001C68FFF7A5FC0246BB8803FB02F2FB88D8
:101DF00013449B002344FB60104B1C68FD687E88E5
:101E0000B7F80080FFF794FC02467B88D11A0B4B91
:101E10001A680B4813465B0013449B0003441B687D
:101E200001930091434632462946204600F0C2F90C
:101E300000BF1037BD46BDE8F08100BF0C03002095
:101E4000100300200404002080B58EB000AF0023F2
:101E50003B62614B5B6C604A43F0806353645E4B52
:101E60005B6C03F080633B623B6A0023FB615A4B6F
:101E70001B6B594A43F400031363574B1B6B03F46A
:101E80000003FB61FB690023BB61534B1B6B524A90
:101E900043F001031363504B1B6B03F00103BB6161
:101EA000BB6900237B614C4B1B6B4B4A43F0020325
:101EB0001363494B1B6B03F002037B617B690023B7
:101EC0003B61454B1B6B444A43F004031363424B95
:101ED0001B6B03F004033B613B690023FB603E4B3B
:101EE0001B6B3D4A43F0080313633B4B1B6B03F032
:101EF0000803FB60FB680023BB60374B1B6B364A53
:101F000043F020031363344B1B6B03F02003BB60CF
:101F1000BB6800237B60304B1B6B2F4A43F04003B0
:101F200013632D4B1B6B03F040037B607B6841F612
:101F300058037B620223BB620023FB6202233B63E4
:101F40000E237B6307F124031946244801F022F98C
:101F50004FF470637B6207F124031946204801F0B7
:101F600019F94FF498637B6207F1240319461D4861
:101F700001F010F948237B6207F1240319461A483F
:101F800001F008F94FF480637B6207F124031946DE
:101F9000164801F0FFF84FF40C637B6207F124034D
:101FA0001946134801F0F6F803237B6209237B638B
:101FB00007F1240319460A4801F0ECF84FF4A05346
:101FC0007B6207F124031946094801F0E3F800BFDA
:101FD0003837BD4680BD00BF0038024000000240D7
:101FE0000004024000080240000C024000140240BD
:101FF00000180240B0B582B000AF03463A60FB80E3
:102000000B46BB800C4B1B680C4A342101FB03F3CD
:1020100013445C331C68BD88FFF78AFB034603FB4F
:1020200005F2FB8813449B0023441A463B68136067
:1020300000BF0837BD46B0BD0C03002004040020DB
:1020400080B588B000AF03463A60FB800B46BB808A
:102050000023FB610023BB6100237B61534B1A68A3
:10206000534913465B0013449B000B4408331B6821
:10207000DB887B824D4B1A684D4913465B00134445
:102080009B000B4408331B689B883B823B8A0733C9
:10209000002B00DA0733DB10DBB2DB00DAB23B8A5D
:1020A000DBB2D31AFB730023FB6176E03B8A073374
:1020B000002B00DA0733DB101A46FB6903FB02F33F
:1020C0003A681344BB603B8A0733002B00DA0733BE
:1020D000DB10012B02D0022B04D00CE0BB681B7874
:1020E0007B6116E0BB681B781B02BA68013212786C
:1020F00013437B610DE0BB681B781A04BB68013396
:102100001B781B021343BA680232127813437B61B7
:1021100000BF0023BB6136E03A8ABB69D21AFB7B61
:102120001344013B012202FA03F31A467B69134070
:10213000002B12D0BB699AB2FB88134498B21B4B98
:102140001A681B4913465B0013449B000B441A6832
:10215000BB881946FFF74EFF12E0BB699AB2FB88B5
:10216000134498B2114B1A68114913465B0013448B
:102170009B000B4404331A68BB881946FFF73AFFEB
:10218000BB690133BB613B8ABA699A42C4D3BB883D
:102190000133BB80FB690133FB617B8AFA699A4298
:1021A00084D300BF2037BD4680BD00BF0C03002094
:1021B0001003002080B586B002AFF860B9607A6085
:1021C0003B60164B4FF440325A60144B00229A6029
:1021D000124ABB69D360114B114A1A600F4800F0D4
:1021E0004DFD0346002B15D1F9680C4800F0A4FE04
:1021F0000346002B0ED1BA683B6800937B68F969EF
:10220000064800F084FD0346002B03D10A21034851
:1022100000F0A8FD00BF1037BD4680BD9C02002025
:1022200000B0024080B500AF294B2A4A1A602A4B01
:1022300002221A60284B07225A60274B04229A6018
:10224000254B0722DA60244B02221A61224B02221C
:102250005A61214B02229A611D4B01225A601C4B8C
:1022600000229A601A4B0422DA60194B10221A617C
:10227000174B40225A61164B4FF4C0729A61144BAF
:102280000022DA61124B4FF400621A62104B0022F6
:102290005A620F4B4FF400529A6200210C4800F032
:1022A0007FF80D490A4802F0DFFC0346002B03D0FB
:1022B0000A4B01221A7002E0084B00221A7040F209
:1022C0006A5000F00DF8054B1B78184680BD00BF22
:1022D00028030020400100A05C03002044000020EF
:1022E00080B584B000AF78600023FB602A4B0122E8
:1022F0001A60294B08225A60274B01229A60264B0C
:102300000022DA604FF6FF722349244802F0E0FC15
:10231000012000F0C3F9204B02221A601E4B082254
:102320005A601D4B01229A601B4B0022DA604FF667
:10233000FF721949194802F0CBFC174B03221A60AF
:10234000154B08225A60144B04229A60124B00224B
:10235000DA604FF6FF721049104802F0B9FC4FF4F2
:102360000C73FB600C4B04221A600B4B08225A6062
:10237000094B01229A60FB68074AD3604FF6FF724F
:102380000549064802F0A4FC7968044802F0CBFC39
:1023900000BF1037BD4680BD780300202803002011
:1023A00080B590B000AF786039607B68002B00F09A
:1023B000EC800023BB62774B9B6B764A43F00103B2
:1023C0009363744B9B6B03F00103BB62BB6A0023F6
:1023D0007B62704B1B6B6F4A43F4800313636D4B3E
:1023E0001B6B03F480037B627B6A00233B62694BB7
:1023F0001B6B684A43F002031363664B1B6B03F0CD
:1024000002033B623B6A0023FB61624B1B6B614A28
:1024100043F0040313635F4B1B6B03F00403FB6186
:10242000FB690023BB615B4B1B6B5A4A43F00803FB
:102430001363584B1B6B03F00803BB61BB6900239C
:102440007B61544B1B6B534A43F010031363514B96
:102450001B6B03F010037B617B6900233B614D4BD9
:102460001B6B4C4A43F0200313634A4B1B6B03F076
:1024700020033B613B690023FB60464B1B6B454AD5
:1024800043F040031363434B1B6B03F04003FB60BB
:10249000FB6802233B630223BB6300237B630C23A3
:1024A000FB636023FB6207F12C0319463A4800F0F6
:1024B00071FE0123FB6207F12C031946374800F037
:1024C00069FE4CF20373FB6207F12C031946344892
:1024D00000F060FE4FF68373FB6207F12C03194690
:1024E000304800F057FE4FF63F03FB6207F12C0324
:1024F00019462D4800F04EFE48F23313FB6207F1F7
:102500002C031946294800F045FE294B00225A6049
:10251000274B80229A60264B4FF40072DA60244BDE
:102520004FF480621A61224B4FF480525A61204B63
:102530004FF480429A611E4B0022DA611C4B4FF42B
:1025400000321A621A4B00225A62194B03229A6215
:10255000174B0022DA62164B00221A63144B154AFD
:102560001A607B68124A1A63114A7B6893631048A9
:1025700000F076FA0E4800F0C5F900220F2138204D
:1025800000F089F9382000F0A2F900BF4037BD46BD
:1025900080BD00BF00380240000402400008024035
:1025A000000C0240001002400014024000180240DB
:1025B000880300201064024080B500AF0E4B1B68FA
:1025C0000D4A43F4007313600B4B1B680A4A43F433
:1025D00080631360084B1B68074A43F480731360E1
:1025E000032000F04DF9002000F008F804F074FA20
:1025F0000023184680BD00BF003C024080B582B079
:1026000000AF7860124B1A68124B1B7819464FF4D2
:102610007A73B3FBF1F3B2FBF3F3184600F065F9FC
:102620000346002B01D001230EE07B680F2B0AD854
:10263000002279684FF0FF3000F02DF9064A7B68E0
:102640001360002300E0012318460837BD4680BD13
:10265000500000204C0000204800002080B400AF53
:10266000064B1B781A46064B1B681344044A13603A
:1026700000BFBD465DF8047B704700BF4C000020E2
:10268000B004002080B400AF034B1B681846BD4661
:102690005DF8047B704700BFB004002080B584B0B3
:1026A00000AF7860FFF7EEFFB8607B68FB60FB6807
:1026B000B3F1FF3F05D0094B1B781A46FB68134462
:1026C000FB6000BFFFF7DEFF0246BB68D31AFA6863
:1026D0009A42F7D800BF1037BD4680BD4C0000209D
:1026E00080B485B000AF78607B6803F00703FB60BF
:1026F0000C4BDB68BB60BA684FF6FF031340BB604E
:10270000FB681A02BB68134343F0BF6343F4003312
:10271000BB60044ABB68D36000BF1437BD465DF898
:10272000047B704700ED00E080B400AF044BDB6831
:102730001B0A03F007031846BD465DF8047B70478B
:1027400000ED00E080B483B000AF0346FB7197F961
:102750000730002B0BDBFB7903F01F02074997F9C9
:1027600007305B09012000FA02F241F8232000BF84
:102770000C37BD465DF8047B704700BF00E100E008
:1027800080B483B000AF03463960FB7197F907301E
:10279000002B0ADB3B68DAB20C4997F907301201CB
:1027A000D2B20B4483F800230AE03B68DAB208494E
:1027B000FB7903F00F03043B1201D2B20B441A76EB
:1027C00000BF0C37BD465DF8047B704700E100E0B8
:1027D00000ED00E080B489B000AFF860B9607A60C5
:1027E000FB6803F00703FB61FB69C3F10703042BDC
:1027F00028BF0423BB61FB690433062B02D9FB69A4
:10280000033B00E000237B614FF0FF32BB6902FA1B
:1028100003F3DA43BB681A407B699A404FF0FF31FB
:102820007B6901FA03F3D9437B680B4013431846D5
:102830002437BD465DF8047B7047000080B582B048
:1028400000AF78607B68013BB3F1807F01D3012347
:102850000FE00A4A7B68013B53600F214FF0FF30C5
:10286000FFF78EFF054B00229A60044B07221A6087
:10287000002318460837BD4680BD00BF10E000E0C9
:1028800080B582B000AF78607868FFF729FF00BF9D
:102890000837BD4680BD80B586B000AF0346B9603D
:1028A0007A60FB7300237B61FFF73EFF78617A68F3
:1028B000B9687869FFF78EFF024697F90F30114625
:1028C0001846FFF75DFF00BF1837BD4680BD80B5D5
:1028D00082B000AF0346FB7197F907301846FFF747
:1028E00031FF00BF0837BD4680BD80B582B000AF64
:1028F00078607868FFF7A2FF034618460837BD46A0
:1029000080BD000080B586B000AF786000237B6199
:10291000FFF7B8FE38617B68002B01D1012399E0F5
:102920007B68002283F834207B68022283F83520FC
:102930007B681B681A687B681B6822F001021A60BA
:102940000FE0FFF79FFE02463B69D31A052B08D91B
:102950007B6820225A657B68032283F83520032395
:1029600078E07B681B681B6803F00103002BE8D14B
:102970007B681B681B687B617A69384B13407B61FD
:102980007B685A687B689B681A437B68DB681A43DC
:102990007B681B691A437B685B691A437B689B6988
:1029A0001A437B68DB691A437B681B6A13437A69A5
:1029B00013437B617B685B6A042B07D17B68DA6A0F
:1029C0007B681B6B13437A6913437B617B681B68CD
:1029D0007A691A607B681B685B697B617B6923F09D
:1029E00007037B617B685B6A7A6913437B617B6861
:1029F0005B6A042B17D17B689B6A7A6913437B61FE
:102A00007B68DB6A002B0ED0786800F0BDF80346C7
:102A1000002B08D07B6840225A657B68012283F82E
:102A20003520012316E07B681B687A695A61786853
:102A300000F074F80346FB607B68DB6D3F229A4030
:102A4000FB689A607B6800225A657B68012283F8E4
:102A50003520002318461837BD4680BD3F8010F052
:102A600080B584B000AF78607B68002B01D1012372
:102A700050E07B6893F83530DBB2022B01D10223A2
:102A800048E07B681B681A687B681B6822F00102BB
:102A90001A607B681B6800221A607B681B68002232
:102AA0005A607B681B6800229A607B681B68002262
:102AB000DA607B681B6800221A617B681B68212230
:102AC0005A61786800F02AF80346FB607B680022B0
:102AD000DA637B6800221A647B6800225A647B6890
:102AE00000229A647B680022DA647B6800221A65FF
:102AF0007B68DB6D3F229A40FB689A607B6800220E
:102B00005A657B68002283F835207B68002283F8B1
:102B10003420002318461037BD4680BD80B485B0F0
:102B200000AF78607B681B68DBB2103B144AA2FBE5
:102B300003231B09FB60134AFB6813441B781A46E6
:102B40007B68DA65FB68032B09D97B681B6823F473
:102B50007F7323F003031A1D7B689A6507E07B6887
:102B60001B6823F47F7323F003037A6893657B6803
:102B70009B6D18461437BD465DF8047B704700BF57
:102B8000ABAAAAAA94C8000880B485B000AF786048
:102B90000023FB737B689B6ABB607B689B69002B8F
:102BA0001FD1BB68032B55D801A252F823F000BFF8
:102BB000C12B0008D32B0008C12B0008552C00089E
:102BC0007B68DB6A03F08073002B45D00123FB7325
:102BD00042E07B68DB6AB3F1C07F3FD10123FB7326
:102BE0003CE07B689B69B3F5005F21D1BB68032B98
:102BF00036D801A252F823F0092C00080F2C000847
:102C0000092C0008212C00080123FB732FE07B68AE
:102C1000DB6A03F08073002B24D00123FB7321E0D7
:102C20007B68DB6AB3F1C07F1ED10123FB731BE01D
:102C3000BB68022B02D9032B03D018E00123FB73DE
:102C400015E07B68DB6A03F08073002B0ED0012354
:102C5000FB730BE000BF0AE000BF08E000BF06E026
:102C600000BF04E000BF02E000BF00E000BFFB7B4C
:102C700018461437BD465DF8047B704780B582B0B6
:102C800000AF78607B68002B01D101233BE07B68BB
:102C900093F83930DBB2002B06D17B68002283F831
:102CA0003820786803F040FF7B68022283F83920DF
:102CB0007B681B681B6823F440317B685A687B681B
:102CC0001B680A431A607B681B685B6B23F0070173
:102CD0007B689A687B681B680A435A637B681B6839
:102CE0001B6C23F47F5323F03F037A68D1687A6822
:102CF00012680B4313647B680022DA637B6801224D
:102D000083F83920002318460837BD4680BD80B5BA
:102D100086B002AFF860B9607A603B60FB6893F8F8
:102D20003830012B01D1022318E0FB68012283F81F
:102D30003820FB68022283F83920BB6900933B6886
:102D40007A68B968F86800F089F9FB681B681A6846
:102D5000FB681B6842F001021A6000231846103716
:102D6000BD4680BD80B586B000AF78603960002375
:102D7000FB607B681B681B6803F00103002B56D0C7
:102D8000FFF780FC78614BE07B681B685B68FB6049
:102D9000FB6803F02103002B23D0FB6803F0200322
:102DA000002B05D07B68DB6B43F002027B68DA63A3
:102DB000FB6803F00103002B05D07B68DB6B43F05D
:102DC00001027B68DA637B681B6821229A607B685A
:102DD000042283F839207B68002283F838200123FD
:102DE000A5E03B68B3F1FF3F1AD0FFF74BFC02466A
:102DF0007B69D31A3A689A4202D33B68002B0FD101
:102E00007B68DB6B43F020027B68DA637B6803221C
:102E100083F839207B68002283F83820032386E07A
:102E20007B681B685B6803F00203002BACD07B68F7
:102E30001B68DB6903F020033B617B681B685B6AEE
:102E400003F020033A6913433B613B69002B61D0D7
:102E5000FFF718FC786156E07B681B685B68FB60D5
:102E6000FB6803F02903002B2ED0FB6803F0080356
:102E7000002B05D07B68DB6B43F004027B68DA63D0
:102E8000FB6803F02003002B05D07B68DB6B43F06D
:102E900002027B68DA63FB6803F00103002B05D0B4
:102EA0007B68DB6B43F001027B68DA637B681B683D
:102EB00029229A607B68042283F839207B680022EB
:102EC00083F83820012332E03B68B3F1FF3F1AD08A
:102ED000FFF7D8FB02467B69D31A3A689A4202D3BD
:102EE0003B68002B0FD17B68DB6B43F020027B68D3
:102EF000DA637B68032283F839207B68002283F839
:102F00003820032313E07B681B685B6803F0100321
:102F1000002BA1D07B681B6812229A607B6801227B
:102F200083F839207B68002283F838200023184674
:102F30001837BD4680BD000080B487B000AF786010
:102F400039607B685B68B3F5403F7B6893F8383045
:102F5000012B01D1022379E07B68012283F838201C
:102F60007B68022283F839203B681B0118337A689A
:102F700013443B613B695A683B699B681B041343DC
:102F80007B61354BFB603B695B680A2B03D03B6977
:102F90005B68092B07D13B69DB6803F07F437A69E3
:102FA00013437B6105E03B69DB681B067A691343C9
:102FB0007B613B68002B20D17B681B685A6AFB68E9
:102FC000DB4302EA03017B681B687A690A435A62A1
:102FD0007B681B683A6912689A613B695B680A2BD7
:102FE00003D03B695B68092B27D13B69DA687B68B2
:102FF0001B6822F07F429A621FE07B681B68DA69D7
:10300000FB68DB4302EA03017B681B687A690A43B9
:10301000DA617B681B683A6912681A613B695B6810
:103020000A2B03D03B695B68092B06D13B69DA6840
:103030007B681B6822F07F421A627B68012283F85A
:1030400039207B68002283F83820002318461C377B
:10305000BD465DF8047B70470F0003FF80B48BB062
:1030600000AFF860B9607A603B60FB681B685B6C1E
:1030700003F040413B681A043B6B1A43FB681B6832
:103080000A435A64FB681B687A68DA63FB685B680A
:10309000B3F5403F74D1BB6803F07F433B62BB682C
:1030A00003F47F03FB61BB6803F47F43BB61BB6830
:1030B000DBB27B61FB689B68002B08D1BA69FB69B6
:1030C0001A433B6A13437A6913437B6253E0FB68FC
:1030D0009B68012B06D1BA69FB6913437A691343D4
:1030E0007B6248E0FB689B68022B11D1FB69DB0C1B
:1030F000FB61BB699B0ABB617B69DB087B61BB69C8
:103100005A01FB69DB0213437A6913437B6232E0A5
:10311000FB689B68032B17D13B6ADB0F3B62FB69A3
:10312000DB0CFB61BB69DB0ABB617B69DB087B6194
:10313000BB695A01FB699B021A433B6ADB031343D9
:103140007A6913437B6216E03B6A1B0F3B62FB69A3
:103150001B0DFB61BB691B0BBB617B691B097B61A1
:10316000BB691A01FB691B021A433B6A1B03134329
:103170007A6913437B62FB681B687A6A9A6303E08F
:10318000FB681B68BA68DA6000BF2C37BD465DF883
:10319000047B704780B489B000AF78603960002349
:1031A0007B6100233B610023BB610023FB6177E16E
:1031B0000122FB6902FA03F37B613B681B687A69B1
:1031C00013403B613A697B699A4240F066813B68F3
:1031D0005B68022B03D03B685B68122B23D1FB6931
:1031E000DA087B68083253F82230BB61FB6903F0D0
:1031F00007039B000F2202FA03F3DB43BA69134073
:10320000BB613B681A69FB6903F007039B0002FA84
:1032100003F3BA691343BB61FB69DA087B680832C0
:10322000B96943F822107B681B68BB61FB695B00CE
:10323000032202FA03F3DB43BA691340BB613B6824
:103240005B6803F00302FB695B0002FA03F3BA69EF
:103250001343BB617B68BA691A603B685B68012BEA
:103260000BD03B685B68022B07D03B685B68112B77
:1032700003D03B685B68122B30D17B689B68BB61D5
:10328000FB695B00032202FA03F3DB43BA691340D4
:10329000BB613B68DA68FB695B0002FA03F3BA6959
:1032A0001343BB617B68BA699A607B685B68BB61EA
:1032B0000122FB6902FA03F3DB43BA691340BB61E5
:1032C0003B685B681B0903F00102FB6902FA03F328
:1032D000BA691343BB617B68BA695A607B68DB6873
:1032E000BB61FB695B00032202FA03F3DB43BA69AB
:1032F0001340BB613B689A68FB695B0002FA03F309
:10330000BA691343BB617B68BA69DA603B685B6882
:1033100003F08053002B00F0C0800023FB60654B5E
:103320005B6C644A43F480435364624B5B6C03F40C
:103330008043FB60FB68604AFB699B08023352F8DC
:103340002330BB61FB6903F003039B000F2202FAE9
:1033500003F3DB43BA691340BB617B68574A93426E
:1033600037D07B68564A934231D07B68554A9342A6
:103370002BD07B68544A934225D07B68534A9342B2
:103380001FD07B68524A934219D07B68514A9342BE
:1033900013D07B68504A93420DD07B684F4A9342CA
:1033A00007D07B684E4A934201D1092312E00A23D9
:1033B00010E008230EE007230CE006230AE00523B3
:1033C00008E0042306E0032304E0022302E00123D3
:1033D00000E00023FA6902F0030292009340BA6908
:1033E0001343BB613449FB699B080233BA6941F856
:1033F00023203C4B1B68BB613B69DB43BA6913402C
:10340000BB613B685B6803F48033002B03D0BA696F
:103410003B691343BB61334ABB691360314B5B6843
:10342000BB613B69DB43BA691340BB613B685B68C6
:1034300003F40033002B03D0BA693B691343BB612B
:10344000284ABB695360274B9B68BB613B69DB43E0
:10345000BA691340BB613B685B6803F48013002BBF
:1034600003D0BA693B691343BB611E4ABB699360D1
:103470001C4BDB68BB613B69DB43BA691340BB6132
:103480003B685B6803F40013002B03D0BA693B6907
:103490001343BB61134ABB69D360FB690133FB6112
:1034A000FB690F2B7FF684AE00BF2437BD465DF865
:1034B000047B7047003802400038014000000240A1
:1034C0000004024000080240000C024000100240CC
:1034D0000014024000180240001C0240002002407C
:1034E00000240240003C014080B487B000AF786007
:1034F000396000233B610023FB600023BB60002395
:103500007B61D9E001227B6902FA03F33B613A68EF
:103510003B691340FB60FA683B699A4240F0C980FE
:103520006A4A7B699B08023352F82330BB607B698F
:1035300003F003039B000F2202FA03F3BA6813405F
:10354000BB607B68624A934237D07B68614A934292
:1035500031D07B68604A93422BD07B685F4A9342AC
:1035600025D07B685E4A93421FD07B685D4A9342B8
:1035700019D07B685C4A934213D07B685B4A9342C4
:103580000DD07B685A4A934207D07B68594A9342D0
:1035900001D1092312E00A2310E008230EE00723DB
:1035A0000CE006230AE0052308E0042306E00323D9
:1035B00004E0022302E0012300E000237A6902F024
:1035C000030292009340BA689A4232D17B6903F0B9
:1035D00003039B000F2202FA03F3BB603B4A7B69A3
:1035E0009B08023352F82310BB68DA4337487B69E3
:1035F0009B080A40023340F823203F4B1A68FB68BF
:10360000DB433D4913400B603B4B5A68FB68DB438F
:10361000394913404B60384B9A68FB68DB433649A5
:1036200013408B60344BDA68FB68DB43324913404C
:10363000CB607B681A687B695B00032101FA03F3A6
:10364000DB431A407B681A607B69DA087B680832C2
:1036500053F822107B6903F007039B000F2202FA44
:1036600003F3DB437A69D20819407B68083243F8D8
:1036700022107B689A687B695B00032101FA03F3DF
:10368000DB431A407B689A607B685A6801217B693A
:1036900001FA03F3DB431A407B685A607B68DA68FF
:1036A0007B695B00032101FA03F3DB431A407B686B
:1036B000DA607B6901337B617B690F2B7FF622AF78
:1036C00000BF1C37BD465DF8047B704700380140E1
:1036D000000002400004024000080240000C0240CA
:1036E000001002400014024000180240001C02407A
:1036F0000020024000240240003C014080B485B01C
:1037000000AF78600B467B807B681A697B8813402A
:10371000002B02D00123FB7301E00023FB73FB7B32
:1037200018461437BD465DF8047B704780B483B0FB
:1037300000AF78600B467B8013467B707B78002B54
:1037400003D07A887B689A6103E07B881A047B68DF
:103750009A6100BF0C37BD465DF8047B70470000DE
:1037600080B584B000AF78607B68002B01D1012365
:103770000FE17B6893F83D30DBB2002B06D17B680C
:10378000002283F83C20786803F0F0F97B6824225B
:1037900083F83D207B681B681A687B681B6822F0F1
:1037A00001021A6001F0A8F8F8607B685B687B4A48
:1037B000934207D8FB687A4A934294BF01230023BF
:1037C000DBB206E0FB68774A934294BF01230023F3
:1037D000DBB2002B01D00123DBE0FB68724AA2FBC5
:1037E00003239B0CBB607B681B685B6823F03F0175
:1037F0007B681B68BA680A435A607B681B681B6A4F
:1038000023F03F017B685B68644A934202D8BB683F
:10381000013309E0BB684FF4967202FB03F3634A7D
:10382000A2FB03239B0901337A6812680B431362DE
:103830007B681B68DB6923F44F4222F0FF027B6840
:103840005B6856498B420DD8FB68591E7B685B68E4
:103850005B00B1FBF3F30133C3F30B03042B38BF5D
:1038600004234FE07B689B68002B11D1FB68581E36
:103870007B6859680B465B000B44B0FBF3F30133E4
:10388000C3F30B03002B0CBF01230023DBB212E0B8
:10389000FB68581E7B6859680B469B000B449900D7
:1038A0000B44B0FBF3F30133C3F30B03002B0CBF4A
:1038B00001230023DBB2002B01D0012322E07B682F
:1038C0009B68002B0ED1FB68581E7B6859680B461D
:1038D0005B000B44B0FBF3F30133C3F30B0343F47E
:1038E00000430FE0FB68581E7B6859680B469B003D
:1038F0000B4499000B44B0FBF3F30133C3F30B0308
:1039000043F44043796809681343CB617B681B68C3
:103910001B6823F0C0017B68DA697B681B6A1A4365
:103920007B681B680A431A607B681B689B6823F4EA
:10393000034323F0FF037A6811697A68D268114360
:103940007A6812680B4393607B681B68DB6823F01E
:10395000FF017B685A697B689B691A437B681B6817
:103960000A43DA607B681B681A687B681B6842F050
:1039700001021A607B6800221A647B68202283F8A7
:103980003D207B6800221A637B68002283F83E207A
:10399000002318461037BD4680BD00BFA086010039
:1039A0007F841E00FF083D0083DE1B43D34D621061
:1039B00080B483B000AF786039607B6893F83D30A5
:1039C000DBB2202B29D17B68242283F83D207B6841
:1039D0001B681A687B681B6822F001021A607B680A
:1039E0001B685A6A7B681B6822F010025A627B6867
:1039F0001B68596A7B681B683A680A435A627B688D
:103A00001B681A687B681B6842F001021A607B68B9
:103A1000202283F83D20002300E0022318460C37C3
:103A2000BD465DF8047B704780B485B000AF786018
:103A300039600023FB817B6893F83D30DBB2202B9B
:103A40002AD17B68242283F83D207B681B681A6892
:103A50007B681B6822F001021A607B681B685B6A46
:103A6000FB81FB8923F00F03FB813B689AB2FB8942
:103A70001343FB817B681B68FA895A627B681B6869
:103A80001A687B681B6842F001021A607B6820227A
:103A900083F83D20002300E0022318461437BD467A
:103AA0005DF8047B7047000080B584B000AF78609B
:103AB0007B68002B01D10123BFE07B6893F8A13024
:103AC000DBB2002B06D17B68002283F8A020786847
:103AD00003F0B6F87B68022283F8A1207B681B689C
:103AE0009A697B681B6822F070429A617B681B6848
:103AF00099697B685A687B689B681A437B68DB68B6
:103B00001A437B681B691A437B681B680A439A61E6
:103B10007B681B6899687B681A684A4B0B40936006
:103B20007B685B691B04FB607B681B6899687B682A
:103B30009A69FB681A437B681B680A439A607B6832
:103B40001B68D9687B681A683E4B0B40D3607B6862
:103B5000DB691B04FB607B681B68D9687B681A6A99
:103B6000FB681A437B681B680A43DA607B681B6842
:103B700019697B681A68334B0B4013617B685B6A79
:103B80001B04FB607B681B6819697B689A6AFB6889
:103B90001A437B681B680A431A617B681B68596972
:103BA0007B681A68274B0B4053617B68DB6A1B04F8
:103BB000FB607B681B6859697B681A6BFB681A435A
:103BC0007B681B680A435A617B6893F835301B0297
:103BD000FB607B6893F836301B04BB607B681B6816
:103BE000DA6A7B681B6802F07F42DA627B681B68D6
:103BF000D96ABA68FB6813437A6892F834201A438A
:103C00007B681B680A43DA627B681B685A6B7B68B7
:103C10001B6842F006025A637B681B689A697B68DE
:103C20001B6842F001029A617B680022C3F8A4205D
:103C30007B68012283F8A120002318461037BD4677
:103C400080BD00BF00F800F0B0B584B000AFF860F0
:103C5000B9607A60FB6893F8A030012B01D1022390
:103C60002CE0FB68012283F8A020FB68022283F885
:103C7000A120FA687B68342101FB03F3134403F1AC
:103C80003802BB6814461D460FCD0FC40FCD0FC4BC
:103C90000FCD0FC42B6823607A68B968F86800F00C
:103CA0003BF8FB681B6801225A62FB68012283F81B
:103CB000A120FB68002283F8A020002318461037BB
:103CC000BD46B0BD80B483B000AF78607B6893F828
:103CD000A030012B01D1022316E07B68012283F87A
:103CE000A0207B68022283F8A1200A4B9B69094A25
:103CF00043F4803393617B68012283F8A1207B68C1
:103D0000002283F8A020002318460C37BD465DF83A
:103D1000047B70470068014080B489B000AFF86050
:103D2000B9607A60BB685A68FB681B68DB681B0C6B
:103D3000C3F30B0313441B04FB61FB681B681A46A7
:103D40007B68DB01134484335B68FA6812681146B0
:103D50007A68D2010A44843203F470435360BB682A
:103D60001A68FB681B68DB681B0CC3F30B03134466
:103D70005A1CFB681B6819467B68DB010B448433C3
:103D80001946FB6913434B60BB68DA68FB681B6824
:103D9000DB68C3F30A0313441B04FB61FB681B6865
:103DA0001A467B68DB01134484339B68FA68126807
:103DB00011467A68D2010A44843203F47043936056
:103DC000BB689A68FB681B68DB68C3F30A0313448B
:103DD0005A1CFB681B6819467B68DB010B44843363
:103DE0001946FB6913438B60FB681B681A467B68A6
:103DF000DB01134484331B69FA68126811467A6840
:103E0000D2010A44843223F007031361FB681B6864
:103E10001A467B68DB01134484331A46BB681B696E
:103E20001361BB6893F831301B02FB61BB6893F8E8
:103E300032301B04BB61BB689B691B067B61FB685E
:103E40001B681A467B68DB01134484339B69FB685B
:103E50001B681A467B68DB01134484331A4600232F
:103E60009361BB6893F830301A46FB691A43BB690B
:103E70001A43FB681B6819467B68DB010B448433DB
:103E800019467B6913438B61FB681B681A467B6884
:103E9000DB01134484335B69FA68126811467A685F
:103EA000D2010A44843223F0FF035361FB681B688C
:103EB0001A467B68DB01134484331A46BB685B698E
:103EC0005361FB681B681A467B68DB01134484332B
:103ED000DB69FA68126811467A68D2010A448432B2
:103EE00023F4E06323F00703D361BB68DA69BB689E
:103EF0001B6AF968096808467968C9010144843178
:103F00001343CB61FB681B681A467B68DB011344D3
:103F100084339B6AFB681B681A467B68DB01134489
:103F200084331A4600239362FB681B681A467B6839
:103F3000DB01134484331A46BB685B6A9362BB6837
:103F40001B69002B02D10423FB611BE0BB681B69CA
:103F5000012B02D10323FB6114E0BB681B69042B16
:103F60000BD0BB681B69022B07D0BB681B69032BF6
:103F700003D0BB681B69072B02D10223FB6101E060
:103F80000123FB61FB681B681A467B68DB01134455
:103F90008433DB6AFA68126811467A68D2010A44EF
:103FA000843203F0E023D362BB689B6AFA6902FBA8
:103FB00003F31A04BB685968BB681B68CB1AF9691C
:103FC00001FB03F30333F968096808467968C901FE
:103FD000014484311343CB62FB681B681A467B683B
:103FE000DB01134484331B6BFA68126811467A684C
:103FF000D2010A44843223F4FF6323F007031363DE
:10400000FB681B681A467B68DB01134484331A463D
:10401000BB68DB6A1363FB681B681A467B68DB01BD
:10402000134484331B68FA68126811467A68D20117
:104030000A44843243F00103136000BF2437BD46B5
:104040005DF8047B7047000080B582B000AF0023AC
:104050007B6000233B60204B1B6C1F4A43F0805366
:1040600013641D4B1B6C03F080533B603B681B4B80
:1040700001221A60FEF706FB786009E0FEF702FBFA
:1040800002467B68D31AB3F57A7F01D903231FE078
:10409000134B5B6803F48033B3F5803FEED1114BD3
:1040A00001221A60FEF7EEFA786009E0FEF7EAFAFC
:1040B00002467B68D31AB3F57A7F01D9032307E060
:1040C000074B5B6803F40033B3F5003FEED10023E8
:1040D00018460837BD4680BD0038024040000E42F9
:1040E0000070004044000E4280B586B000AF78609A
:1040F0007B68002B01D101232DE27B681B6803F054
:104100000103002B75D0A34B9B6803F00C03042B19
:104110000CD0A04B9B6803F00C03082B12D19D4BD5
:104120005B6803F48003B3F5800F0BD1994B1B68D8
:1041300003F40033002B5BD07B685B68002B57D106
:10414000012308E27B685B68B3F5803F06D1914BA1
:104150001B68904A43F4803313601DE07B685B6802
:10416000B3F5A02F0CD18B4B1B688A4A43F48023F4
:104170001360884B1B68874A43F4803313600BE05D
:10418000844B1B68834A23F480331360814B1B6884
:10419000804A23F4802313607B685B68002B13D074
:1041A000FEF770FA386108E0FEF76CFA02463B69E8
:1041B000D31A642B01D90323CDE1764B1B6803F49A
:1041C0000033002BF0D014E0FEF75CFA386108E011
:1041D000FEF758FA02463B69D31A642B01D9032330
:1041E000B9E16C4B1B6803F40033002BF0D100E005
:1041F00000BF7B681B6803F00203002B63D0654B94
:104200009B6803F00C03002B0BD0624B9B6803F000
:104210000C03082B1CD15F4B5B6803F48003002B5D
:1042200016D15C4B1B6803F00203002B05D07B68A2
:10423000DB68012B01D001238DE1564B1B6823F075
:10424000F8027B681B69DB00524913430B603AE0BC
:104250007B68DB68002B20D04F4B01221A60FEF7F1
:1042600011FA386108E0FEF70DFA02463B69D31AED
:10427000022B01D903236EE1464B1B6803F00203B6
:10428000002BF0D0434B1B6823F0F8027B681B69BE
:10429000DB00404913430B6015E03F4B00221A60DE
:1042A000FEF7F0F9386108E0FEF7ECF902463B69E9
:1042B000D31A022B01D903234DE1364B1B6803F0BF
:1042C0000203002BF0D17B681B6803F00803002B6E
:1042D00030D07B685B69002B16D0304B01221A600E
:1042E000FEF7D0F9386108E0FEF7CCF902463B69E9
:1042F000D31A022B01D903232DE1264B5B6F03F068
:104300000203002BF0D015E0244B00221A60FEF7C8
:10431000B9F9386108E0FEF7B5F902463B69D31AEE
:10432000022B01D9032316E11A4B5B6F03F0020342
:10433000002BF0D17B681B6803F00403002B00F016
:10434000A0800023FB75134B1B6C03F08053002BE4
:104350000FD10023FB600F4B1B6C0E4A43F08053C0
:1043600013640C4B1B6C03F08053FB60FB68012350
:10437000FB750B4B1B6803F48073002B21D1084B9A
:104380001B68074A43F480731360FEF77BF93861BA
:1043900011E000BF0038024000004742800E474253
:1043A00000700040FEF76EF902463B69D31A022BFB
:1043B00001D90323CFE06A4B1B6803F48073002B01
:1043C000F0D07B689B68012B06D1664B1B6F654A5A
:1043D00043F0010313671CE07B689B68052B0CD13D
:1043E000604B1B6F5F4A43F0040313675D4B1B6F09
:1043F0005C4A43F0010313670BE05A4B1B6F594AA9
:1044000023F001031367574B1B6F564A23F0040335
:1044100013677B689B68002B15D0FEF733F9386172
:104420000AE0FEF72FF902463B69D31A41F28832BF
:10443000934201D903238EE04A4B1B6F03F0020322
:10444000002BEED014E0FEF71DF938610AE0FEF70C
:1044500019F902463B69D31A41F28832934201D9D5
:10446000032378E03F4B1B6F03F00203002BEED1D8
:10447000FB7D012B05D13B4B1B6C3A4A23F080534B
:1044800013647B689B69002B64D0364B9B6803F0F8
:104490000C03082B5CD07B689B69022B41D1324B0B
:1044A00000221A60FEF7EEF8386108E0FEF7EAF83D
:1044B00002463B69D31A022B01D903234BE0294B57
:1044C0001B6803F00073002BF0D17B68DA697B680E
:1044D0001B6A1A437B685B6A9B011A437B689B6A71
:1044E0005B08013B1B041A437B68DB6A1B061D4902
:1044F00013434B601C4B01221A60FEF7C3F838616E
:1045000008E0FEF7BFF802463B69D31A022B01D937
:10451000032320E0134B1B6803F00073002BF0D043
:1045200018E0114B00221A60FEF7ACF8386108E081
:10453000FEF7A8F802463B69D31A022B01D90323E0
:1045400009E0084B1B6803F00073002BF0D101E079
:10455000012300E0002318461837BD4680BD00BF88
:1045600000700040003802406000474280B584B0CF
:1045700000AF786039607B68002B01D10123CAE06D
:10458000674B1B6803F00F033A689A420CD9644BDF
:104590003A68D2B21A70624B1B6803F00F033A6894
:1045A0009A4201D00123B6E07B681B6803F0020346
:1045B000002B20D07B681B6803F00403002B05D080
:1045C000584B9B68574A43F4E05393607B681B68E1
:1045D00003F00803002B05D0524B9B68514A43F46B
:1045E000604393604F4B9B6823F0F0027B689B68AD
:1045F0004C4913438B607B681B6803F00103002B5D
:1046000044D07B685B68012B07D1464B1B6803F4E1
:104610000033002B19D101237DE07B685B68022BFE
:1046200003D07B685B68032B07D13E4B1B6803F00C
:104630000073002B09D101236DE03A4B1B6803F096
:104640000203002B01D1012365E0364B9B6823F068
:1046500003027B685B68334913438B60FEF712F8F3
:10466000F8600AE0FEF70EF80246FB68D31A41F242
:104670008832934201D903234DE02A4B9B6803F013
:104680000C027B685B689B009A42EBD1244B1B6851
:1046900003F00F033A689A420CD2214B3A68D2B227
:1046A0001A701F4B1B6803F00F033A689A4201D03F
:1046B000012330E07B681B6803F00403002B08D063
:1046C000184B9B6823F4E0527B68DB681549134361
:1046D0008B607B681B6803F00803002B09D0114B2B
:1046E0009B6823F460427B681B69DB000D49134320
:1046F0008B6000F01DF801460A4B9B681B0903F014
:104700000F03094AD35C21FA03F3084A136000201F
:10471000FDF774FF002318461037BD4680BD00BF6B
:10472000003C0240003802409CC8000850000020B5
:10473000F0B585B000AF00237B600023FB60002351
:104740003B600023BB60634B9B6803F00C03042BAE
:1047500007D0082B08D0002B40F0B4805E4BBB6024
:10476000B3E05E4BBB60B0E05A4B5B6803F03F03C5
:104770007B60584B5B6803F48003002B4AD0554B99
:104780005B689B094FF0000440F2FF114FF00002FC
:1047900003EA010504EA0206294632464FF0000307
:1047A0004FF00004540144EAD1644B0119462246FB
:1047B000491B62EB06024FF000034FF00004940126
:1047C00044EA91648B015B1A64EB02044FF0000130
:1047D0004FF00002E20042EA5372D9000B46144641
:1047E0005B1944EB06044FF000014FF00002620237
:1047F00042EAD35259020B461446184621467B68BA
:104800004FF000041A462346FCF74EFA03460C46C6
:10481000FB6049E02F4B5B689B094FF0000440F2BE
:10482000FF114FF0000203EA010504EA02062946DF
:1048300032464FF000034FF00004540144EAD164C3
:104840004B0119462246491B62EB06024FF000035A
:104850004FF00004940144EA91648B015B1A64EB0D
:1048600002044FF000014FF00002E20042EA5372EE
:10487000D9000B4614465B1944EB06044FF00001C7
:104880004FF00002A20242EA935299020B461446EC
:10489000184621467B684FF000041A462346FCF771
:1048A00003FA03460C46FB600A4B5B681B0C03F0E3
:1048B000030301335B003B60FA683B68B2FBF3F330
:1048C000BB6002E0044BBB6000BFBB6818461437F6
:1048D000BD46F0BD003802400024F40000127A000A
:1048E00080B400AF034B1B681846BD465DF8047BDF
:1048F000704700BF5000002080B500AFFFF7F0FF09
:104900000146054B9B689B0A03F00703034AD35CEF
:1049100021FA03F3184680BD00380240ACC80008F5
:1049200080B586B000AF786000237B6100233B61D7
:104930007B681B6803F00103002B05D17B681B68B3
:1049400003F00203002B61D0A34B00221A60FDF795
:1049500099FE786108E0FDF795FE02467B69D31A5F
:10496000022B01D9032377E19C4B1B6803F0006302
:10497000002BF0D17B681B6803F00103002B09D0EA
:104980007B685B689A017B689B681B0793491343AC
:10499000C1F884307B681B6803F00203002B1FD032
:1049A0008E4BD3F884301B0F03F007033B617B6809
:1049B0005B689A017B68DB681B061A433B691B072F
:1049C00086491343C1F88430844BD3F88C3023F0EC
:1049D0001F027B68DB69013B80491343C1F88C30BF
:1049E0007D4B01221A60FDF74DFE786108E0FDF76E
:1049F00049FE02467B69D31A022B01D903232BE11E
:104A0000764B1B6803F00063002BF0D07B681B68BB
:104A100003F00403002B05D17B681B6803F0080337
:104A2000002B79D06E4B00221A60FDF72BFE7861C7
:104A300008E0FDF727FE02467B69D31A022B01D955
:104A4000032309E1654B1B6803F00053B3F1005FDA
:104A5000EFD07B681B6803F00403002B20D05F4B72
:104A6000D3F888301B0F03F007033B617B681B6999
:104A70009A017B685B691B061A433B691B07574910
:104A80001343C1F88830554BD3F88C3023F4F852D7
:104A90007B681B6A013B1B0250491343C1F88C30F1
:104AA0007B681B6803F00803002B1ED04B4BD3F828
:104AB00088301B0E03F00F033B617B681B699A0172
:104AC0003B691B061A437B689B691B0743491343D9
:104AD000C1F88830414BD3F88C3023F440327B68E6
:104AE0005B6A3E491343C1F88C303D4B01221A608A
:104AF000FDF7C8FD786108E0FDF7C4FD02467B695B
:104B0000D31A022B01D90323A6E0344B1B6803F010
:104B10000053B3F1005FEFD17B681B6803F0200303
:104B2000002B00F08D800023FB602C4B1B6C2B4A6C
:104B300043F080531364294B1B6C03F08053FB60DC
:104B4000FB68284B1B68274A43F480731360FDF70A
:104B500099FD786108E0FDF795FD02467B69D31A5F
:104B6000022B01D9032377E01E4B1B6803F48073EB
:104B7000002BF0D0194B1B6F03F440733B613B6972
:104B8000002B39D07B689B6A03F440733A699A42E0
:104B900032D0124B1B6F23F440733B61124B012246
:104BA0001A60114B00221A600C4A3B6913670B4BC9
:104BB0001B6F03F00103012B1ED1FDF763FD78612C
:104BC00014E0FDF75FFD02467B69D31A41F288329B
:104BD00093420BD903233FE068004742003802406C
:104BE0007000474200700040400E47421C4B1B6F54
:104BF00003F00203002BE4D07B689B6A03F440734C
:104C0000B3F5407F0DD1164B9B6823F4F8127B68F7
:104C10009B6A23F0704323F44073114913438B6064
:104C200005E00F4B9B680E4A23F4F81393600C4B7E
:104C30001A6F7B689B6AC3F30B03094913430B6725
:104C40007B681B6803F01003002B04D07B6893F88B
:104C50002C20044B1A60002318461837BD4680BD2F
:104C600000380240E011474280B582B000AF786062
:104C700039607B68002B01D1012325E07B6893F824
:104C80002C30DBB2002B06D17B68002283F82D206C
:104C9000786802F003FA7B68022283F82C207B6894
:104CA0001A687B6804331946104601F06AF87B687D
:104CB00018687B685B681A46396801F0D5F87B682C
:104CC000012283F82C20002318460837BD4680BDFA
:104CD00080B584B000AFF860B9607A60FB6893F883
:104CE0002C30DBB2022B01D1022318E0FB68022238
:104CF00083F82C20FB681B687A68B968184601F0B5
:104D000032F9BB681B68022B04D1FB68052283F8CB
:104D10002C2003E0FB68012283F82C200023184696
:104D20001037BD4680BD80B582B000AF7860396075
:104D30007B6893F82C30DBB2022B01D102230EE00A
:104D40007B68022283F82C207B681B683968184630
:104D500001F045F97B68012283F82C2000231846D6
:104D60000837BD4680BD80B582B000AF78607B68F3
:104D7000002B01D1012356E07B6800229A627B68F8
:104D800093F85130DBB2002B06D17B68002283F808
:104D90005020786802F062F87B68022283F8512084
:104DA0007B681B681A687B681B6822F040021A60E7
:104DB0007B685A687B689B681A437B68DB681A4388
:104DC0007B681B691A437B685B691A437B689B6934
:104DD00003F400731A437B68DB691A437B681B6A20
:104DE00042EA03017B689A6A7B681B680A431A607F
:104DF0007B689B691B0C03F004017B685A6A7B6823
:104E00001B680A435A607B681B68DA697B681B6809
:104E100022F40062DA617B6800225A657B68012215
:104E200083F85120002318460837BD4680BD80B561
:104E300082B000AF78607B68002B01D101231AE0BB
:104E40007B68022283F851207B681B681A687B68A4
:104E50001B6822F040021A60786802F047F87B680D
:104E600000225A657B68002283F851207B6800226B
:104E700083F85020002318460837BD4680BD80B512
:104E800088B000AFF860B9603B601346FB80002338
:104E9000FB77FB6893F85030012B01D102231EE110
:104EA000FB68012283F85020FDF7ECFBB861FB881A
:104EB000FB82FB6893F85130DBB2012B02D0022356
:104EC000FB7703E1BB68002B02D0FB88002B02D1EB
:104ED0000123FB77FAE0FB68032283F85120FB688B
:104EE00000225A65FB68BA681A63FB68FA889A86DA
:104EF000FB68FA88DA86FB6800229A63FB68002266
:104F00009A87FB680022DA87FB6800225A64FB68F4
:104F100000221A64FB689B68B3F5004F07D1FB6859
:104F20001B681A68FB681B6842F480421A60FB68C1
:104F30001B681B6803F04003402B07D0FB681B680D
:104F40001A68FB681B6842F040021A60FB68DB6865
:104F5000B3F5006F4BD1FB685B68002B02D0FB8A76
:104F6000012B3ED1FB681B6B1A88FB681B68DA605B
:104F7000FB681B6B9A1CFB681A63FB68DB8E9BB299
:104F8000013B9AB2FB68DA862BE0FB681B689B68E2
:104F900003F00203022B12D1FB681B6B1A88FB681B
:104FA0001B68DA60FB681B6B9A1CFB681A63FB6862
:104FB000DB8E9BB2013B9AB2FB68DA8611E0FDF70B
:104FC00061FB0246BB69D31A3A689A4203D83B6830
:104FD000B3F1FF3F02D13B68002B02D10323FB77E3
:104FE00074E0FB68DB8E9BB2002BCED14CE0FB68FB
:104FF0005B68002B02D0FB8A012B40D1FB681A6B47
:10500000FB681B680C3312781A70FB681B6B5A1C08
:10501000FB681A63FB68DB8E9BB2013B9AB2FB68AC
:10502000DA862CE0FB681B689B6803F00203022B06
:1050300013D1FB681A6BFB681B680C3312781A706B
:10504000FB681B6B5A1CFB681A63FB68DB8E9BB208
:10505000013B9AB2FB68DA8611E0FDF713FB0246CA
:10506000BB69D31A3A689A4203D83B68B3F1FF3F51
:1050700002D13B68002B02D10323FB7726E0FB68BB
:10508000DB8E9BB2002BCDD1BA693968F86800F08D
:10509000B3FB0346002B02D0FB6820225A65FB6855
:1050A0009B68002B0AD100233B61FB681B68DB680F
:1050B0003B61FB681B689B683B613B69FB685B6D00
:1050C000002B02D00123FB7700E000BFFB68012228
:1050D00083F85120FB68002283F85020FB7F18469C
:1050E0002037BD4680BD80B588B002AFF860B9609A
:1050F0003B601346FB800023FB75FB685B68B3F5E0
:10510000827F12D1FB689B68002B0ED1FB680422C2
:1051100083F85120FA883B6800931346BA68B9684F
:10512000F86800F0E9F80346E2E0FB6893F85030D5
:10513000012B01D10223DBE0FB68012283F8502020
:10514000FDF7A0FA3861FB6893F85130DBB2012B10
:1051500002D00223FB75C2E0BB68002B02D0FB88A3
:10516000002B02D10123FB75B9E0FB68042283F810
:105170005120FB6800225A65FB68BA689A63FB6895
:10518000FA889A87FB68FA88DA87FB6800221A6334
:10519000FB6800229A86FB680022DA86FB68002200
:1051A0001A64FB6800225A64FB689B68B3F5004FE1
:1051B00007D1FB681B681A68FB681B6822F48042F1
:1051C0001A60FB681B681B6803F04003402B07D084
:1051D000FB681B681A68FB681B6842F040021A6093
:1051E000FB68DB68002B62D12EE0FB681B689B68C4
:1051F00003F00103012B15D1FB681B6803F10C02BE
:10520000FB689B6B1278D2B21A70FB689B6B5A1CBE
:10521000FB689A63FB68DB8F9BB2013B9AB2FB6829
:10522000DA8711E0FDF72EFA02463B69D31A3A6895
:105230009A4203D83B68B3F1FF3F02D13B68002B91
:1052400002D10323FB754AE0FB68DB8F9BB2002B86
:10525000CBD131E0FB681B689B6803F00103012B95
:1052600013D1FB681B68DA68FB689B6B92B21A80EB
:10527000FB689B6B9A1CFB689A63FB68DB8F9BB295
:10528000013B9AB2FB68DA8711E0FDF7FBF90246B1
:105290003B69D31A3A689A4203D83B68B3F1FF3F9F
:1052A00002D13B68002B02D10323FB7517E0FB689A
:1052B000DB8F9BB2002BCDD13A693968F86800F0DA
:1052C00035FA0346002B02D0FB6820225A65FB68A2
:1052D0005B6D002B02D00123FB7500E000BFFB6873
:1052E000012283F85120FB68002283F85020FB7DC7
:1052F00018461837BD4680BD80B58CB000AFF86049
:10530000B9607A607B800123FB62002387F82B3031
:10531000FB6893F85030012B01D102238AE1FB682E
:10532000012283F85020FDF7ADF97862FB6893F80D
:10533000513087F82330FB685B68FB617B887B8397
:1053400097F82330012B0FD0FB69B3F5827F07D18B
:10535000FB689B68002B03D197F82330042B03D004
:10536000022387F82B305BE1BB68002B05D07B68FC
:10537000002B02D07B88002B03D1012387F82B3030
:105380004EE1FB6893F85130DBB2042B03D0FB688D
:10539000052283F85120FB6800225A65FB687A6871
:1053A0009A63FB687A88DA87FB687A889A87FB6851
:1053B000BA681A63FB687A88DA86FB687A889A8604
:1053C000FB6800221A64FB6800225A64FB681B68B1
:1053D0001B6803F04003402B07D0FB681B681A686A
:1053E000FB681B6842F040021A60FB68DB68B3F59B
:1053F000006F78D1FB685B68002B02D07B8B012BA0
:1054000066D1FB681B6B1A88FB681B68DA60FB6857
:105410001B6B9A1CFB681A63FB68DB8E9BB2013B1B
:105420009AB2FB68DA8653E0FB681B689B6803F05E
:105430000203022B1BD1FB68DB8E9BB2002B16D024
:10544000FB6A012B13D1FB681B6B1A88FB681B6876
:10545000DA60FB681B6B9A1CFB681A63FB68DB8EC7
:105460009BB2013B9AB2FB68DA860023FB62FB68C1
:105470001B689B6803F00103012B19D1FB68DB8FCC
:105480009BB2002B14D0FB681B68DA68FB689B6B2F
:1054900092B21A80FB689B6B9A1CFB689A63FB684C
:1054A000DB8F9BB2013B9AB2FB68DA870123FB6278
:1054B000FDF7E8F802467B6AD31ABA6B9A4207D81E
:1054C000BB6BB3F1FF3F03D0032387F82B30A7E07A
:1054D000FB68DB8E9BB2002BA6D1FB68DB8F9BB2F7
:1054E000002BA1D17CE0FB685B68002B02D07B8B9A
:1054F000012B6BD1FB681A6BFB681B680C331278AD
:105500001A70FB681B6B5A1CFB681A63FB68DB8E06
:105510009BB2013B9AB2FB68DA8657E0FB681B68D6
:105520009B6803F00203022B1CD1FB68DB8E9BB24D
:10553000002B17D0FB6A012B14D1FB681A6BFB6898
:105540001B680C3312781A70FB681B6B5A1CFB68C3
:105550001A63FB68DB8E9BB2013B9AB2FB68DA866A
:105560000023FB62FB681B689B6803F00103012BAF
:1055700019D1FB68DB8F9BB2002B14D0FB681B6832
:10558000DA68FB689B6BD2B21A70FB689B6B5A1C83
:10559000FB689A63FB68DB8F9BB2013B9AB2FB68A6
:1055A000DA870123FB62FDF76DF802467B6AD31AA6
:1055B000BA6B9A4203D8BB6BB3F1FF3F02D1BB6B0E
:1055C000002B03D1032387F82B3029E0FB68DB8E07
:1055D0009BB2002BA2D1FB68DB8F9BB2002B9DD12D
:1055E0007A6AB96BF86800F007F90346002B06D019
:1055F000012387F82B30FB6820225A6510E0FB68F6
:105600009B68002B0BD100237B61FB681B68DB6868
:105610007B61FB681B689B687B617B6900E000BF66
:10562000FB68012283F85120FB68002283F8502098
:1056300097F82B3018463037BD4680BD80B483B014
:1056400000AF78607B6893F85130DBB218460C37B6
:10565000BD465DF8047B704780B584B000AFF8604C
:10566000B9603B601346FB714CE03B68B3F1FF3F10
:1056700048D0FDF707F80246BB69D31A3A689A4248
:1056800002D93B68002B3DD1FB681B685A68FB6858
:105690001B6822F0E0025A60FB685B68B3F5827F0A
:1056A00011D1FB689B68B3F5004F04D0FB689B6881
:1056B000B3F5806F07D1FB681B681A68FB681B682D
:1056C00022F040021A60FB689B6AB3F5005F0FD1BD
:1056D000FB681B681A68FB681B6822F400521A609A
:1056E000FB681B681A68FB681B6842F400521A606A
:1056F000FB68012283F85120FB68002283F85020C8
:1057000003230FE0FB681B689A68BB681340BA6804
:105710009A420CBF01230023DBB21A46FB799A425E
:10572000A3D1002318461037BD4680BD80B586B092
:1057300002AFF860B9607A60FB685B68B3F5827F9E
:1057400011D1FB689B68B3F5004F04D0FB689B68E0
:10575000B3F5806F07D1FB681B681A68FB681B688C
:1057600022F040021A60FB685B68B3F5827F2AD1A1
:10577000FB689B68B3F5806F12D07B680093BB68B1
:1057800000228021F868FFF767FF0346002B2DD029
:10579000FB685B6D43F02002FB685A65032326E03B
:1057A0007B680093BB6800220121F868FFF754FF73
:1057B0000346002B1AD0FB685B6D43F02002FB68A8
:1057C0005A65032313E07B680093BB680022012124
:1057D000F868FFF741FF0346002B07D0FB685B6DBD
:1057E00043F02002FB685A65032300E000231846BB
:1057F0001037BD4680BD000080B588B002AFF860AC
:10580000B9607A601B4B1B681B4AA2FB03235B0D2C
:105810004FF47A7202FB03F37B61FB685B68B3F5BC
:10582000827F12D17B680093BB6800228021F868D8
:10583000FFF712FF0346002B16D0FB685B6D43F0A9
:105840002002FB685A6503230FE07B69002B0AD016
:105850007B69013B7B61FB681B689B6803F08003ED
:10586000802BF2D000E000BF002318461837BD4659
:1058700080BD00BF50000020819F5E1680B582B0C1
:1058800000AF78607B68002B01D101231DE07B68AD
:1058900093F83D30DBB2002B06D17B68002283F801
:1058A0003C20786801F040FB7B68022283F83D20B1
:1058B0007B681A687B6804331946104600F068F963
:1058C0007B68012283F83D20002318460837BD4637
:1058D00080BD80B485B000AF78607B681B68DA68F3
:1058E0007B681B6842F00102DA607B681B689B687A
:1058F00003F00703FB60FB68062B07D07B681B687F
:105900001A687B681B6842F001021A60002318467F
:105910001437BD465DF8047B704780B582B000AF98
:1059200078607B681B681B6903F00203022B22D19D
:105930007B681B68DB6803F00203022B1BD17B68CA
:105940001B686FF002021A617B6801221A777B687C
:105950001B689B6903F00303002B03D0786800F0F9
:10596000F8F805E0786800F0EAF8786800F0FBF8ED
:105970007B6800221A777B681B681B6903F00403AD
:10598000042B22D17B681B68DB6803F00403042B23
:105990001BD17B681B686FF004021A617B680222CE
:1059A0001A777B681B689B6903F44073002B03D054
:1059B000786800F0CEF805E0786800F0C0F8786804
:1059C00000F0D1F87B6800221A777B681B681B699E
:1059D00003F00803082B22D17B681B68DB6803F007
:1059E0000803082B1BD17B681B686FF008021A6143
:1059F0007B6804221A777B681B68DB6903F003036A
:105A0000002B03D0786800F0A4F805E0786800F077
:105A100096F8786800F0A7F87B6800221A777B6810
:105A20001B681B6903F01003102B22D17B681B68D5
:105A3000DB6803F01003102B1BD17B681B686FF031
:105A400010021A617B6808221A777B681B68DB6981
:105A500003F44073002B03D0786800F07AF805E077
:105A6000786800F06CF8786800F07DF87B680022B8
:105A70001A777B681B681B6903F00103012B0ED1A9
:105A80007B681B68DB6803F00103012B07D17B688F
:105A90001B686FF001021A61786800F046F87B68B5
:105AA0001B681B6903F08003802B0ED17B681B6889
:105AB000DB6803F08003802B07D17B681B686FF0E5
:105AC00080021A61786800F052F97B681B681B69D4
:105AD00003F04003402B0ED17B681B68DB6803F0AA
